{
  "contractName": "JDR",
  "abi": [
    {
      "inputs": [],
      "payable": false,
      "stateMutability": "nonpayable",
      "type": "constructor"
    },
    {
      "anonymous": false,
      "inputs": [
        {
          "indexed": false,
          "internalType": "address",
          "name": "who",
          "type": "address"
        }
      ],
      "name": "Blocked",
      "type": "event"
    },
    {
      "anonymous": false,
      "inputs": [
        {
          "indexed": false,
          "internalType": "address",
          "name": "who",
          "type": "address"
        },
        {
          "indexed": false,
          "internalType": "uint256",
          "name": "amount",
          "type": "uint256"
        }
      ],
      "name": "Minted",
      "type": "event"
    },
    {
      "anonymous": false,
      "inputs": [
        {
          "indexed": false,
          "internalType": "address",
          "name": "who",
          "type": "address"
        }
      ],
      "name": "Unblocked",
      "type": "event"
    },
    {
      "constant": true,
      "inputs": [
        {
          "internalType": "address",
          "name": "",
          "type": "address"
        }
      ],
      "name": "balances",
      "outputs": [
        {
          "internalType": "uint256",
          "name": "amount",
          "type": "uint256"
        },
        {
          "internalType": "bool",
          "name": "isBlocked",
          "type": "bool"
        }
      ],
      "payable": false,
      "stateMutability": "view",
      "type": "function"
    },
    {
      "constant": true,
      "inputs": [],
      "name": "owner",
      "outputs": [
        {
          "internalType": "address",
          "name": "",
          "type": "address"
        }
      ],
      "payable": false,
      "stateMutability": "view",
      "type": "function"
    },
    {
      "constant": false,
      "inputs": [
        {
          "internalType": "uint256",
          "name": "amount",
          "type": "uint256"
        }
      ],
      "name": "mint",
      "outputs": [],
      "payable": false,
      "stateMutability": "nonpayable",
      "type": "function"
    },
    {
      "constant": false,
      "inputs": [
        {
          "internalType": "address",
          "name": "reciever",
          "type": "address"
        },
        {
          "internalType": "uint256",
          "name": "amount",
          "type": "uint256"
        }
      ],
      "name": "transfer",
      "outputs": [],
      "payable": false,
      "stateMutability": "nonpayable",
      "type": "function"
    },
    {
      "constant": false,
      "inputs": [
        {
          "internalType": "address",
          "name": "user",
          "type": "address"
        }
      ],
      "name": "blockUser",
      "outputs": [],
      "payable": false,
      "stateMutability": "nonpayable",
      "type": "function"
    },
    {
      "constant": false,
      "inputs": [
        {
          "internalType": "address",
          "name": "user",
          "type": "address"
        }
      ],
      "name": "unblockUser",
      "outputs": [],
      "payable": false,
      "stateMutability": "nonpayable",
      "type": "function"
    },
    {
      "constant": false,
      "inputs": [
        {
          "internalType": "address",
          "name": "user",
          "type": "address"
        },
        {
          "internalType": "uint256",
          "name": "amount",
          "type": "uint256"
        }
      ],
      "name": "confiscation",
      "outputs": [],
      "payable": false,
      "stateMutability": "nonpayable",
      "type": "function"
    },
    {
      "constant": false,
      "inputs": [
        {
          "internalType": "address",
          "name": "user",
          "type": "address"
        }
      ],
      "name": "accrualPersents",
      "outputs": [],
      "payable": false,
      "stateMutability": "nonpayable",
      "type": "function"
    }
  ],
  "bytecode": "0x608060405234801561001057600080fd5b5033600360006101000a81548173ffffffffffffffffffffffffffffffffffffffff021916908373ffffffffffffffffffffffffffffffffffffffff1602179055506005600160006101000a81548160ff021916908360ff1602179055506005600281905550611661806100856000396000f3fe608060405234801561001057600080fd5b50600436106100875760003560e01c80638da5cb5b1161005b5780638da5cb5b146101bb578063a01de26514610205578063a0712d6814610253578063a9059cbb1461028157610087565b80620153441461008c57806327e235e3146100d057806339d319e5146101335780633da0132514610177575b600080fd5b6100ce600480360360208110156100a257600080fd5b81019080803573ffffffffffffffffffffffffffffffffffffffff1690602001909291905050506102cf565b005b610112600480360360208110156100e657600080fd5b81019080803573ffffffffffffffffffffffffffffffffffffffff16906020019092919050505061074d565b60405180838152602001821515151581526020019250505060405180910390f35b6101756004803603602081101561014957600080fd5b81019080803573ffffffffffffffffffffffffffffffffffffffff16906020019092919050505061077e565b005b6101b96004803603602081101561018d57600080fd5b81019080803573ffffffffffffffffffffffffffffffffffffffff1690602001909291905050506109c8565b005b6101c3610c12565b604051808273ffffffffffffffffffffffffffffffffffffffff1673ffffffffffffffffffffffffffffffffffffffff16815260200191505060405180910390f35b6102516004803603604081101561021b57600080fd5b81019080803573ffffffffffffffffffffffffffffffffffffffff16906020019092919080359060200190929190505050610c38565b005b61027f6004803603602081101561026957600080fd5b8101908080359060200190929190505050610fd3565b005b6102cd6004803603604081101561029757600080fd5b81019080803573ffffffffffffffffffffffffffffffffffffffff16906020019092919080359060200190929190505050611163565b005b600360009054906101000a900473ffffffffffffffffffffffffffffffffffffffff1673ffffffffffffffffffffffffffffffffffffffff163373ffffffffffffffffffffffffffffffffffffffff1614610392576040517f08c379a00000000000000000000000000000000000000000000000000000000081526004018080602001828103825260138152602001807f43616c6c6572206973206e6f74206f776e65720000000000000000000000000081525060200191505060405180910390fd5b80600360009054906101000a900473ffffffffffffffffffffffffffffffffffffffff1673ffffffffffffffffffffffffffffffffffffffff168173ffffffffffffffffffffffffffffffffffffffff161415610457576040517f08c379a000000000000000000000000000000000000000000000000000000000815260040180806020018281038252600d8152602001807f55736572206973206f776e65720000000000000000000000000000000000000081525060200191505060405180910390fd5b81600460008273ffffffffffffffffffffffffffffffffffffffff1673ffffffffffffffffffffffffffffffffffffffff16815260200190815260200160002060010160009054906101000a900460ff161561051b576040517f08c379a000000000000000000000000000000000000000000000000000000000815260040180806020018281038252600f8152602001807f5573657220697320626c6f636b6564000000000000000000000000000000000081525060200191505060405180910390fd5b8260006002546064600460008573ffffffffffffffffffffffffffffffffffffffff1673ffffffffffffffffffffffffffffffffffffffff168152602001908152602001600020600001548161056d57fe5b040290508060046000600360009054906101000a900473ffffffffffffffffffffffffffffffffffffffff1673ffffffffffffffffffffffffffffffffffffffff1673ffffffffffffffffffffffffffffffffffffffff16815260200190815260200160002060000154101561062e576040517f08c379a000000000000000000000000000000000000000000000000000000000815260040180806020018281038252602d8152602001806115de602d913960400191505060405180910390fd5b60006002546064600460008973ffffffffffffffffffffffffffffffffffffffff1673ffffffffffffffffffffffffffffffffffffffff168152602001908152602001600020600001548161067f57fe5b0402905080600460008873ffffffffffffffffffffffffffffffffffffffff1673ffffffffffffffffffffffffffffffffffffffff168152602001908152602001600020600001600082825401925050819055508060046000600360009054906101000a900473ffffffffffffffffffffffffffffffffffffffff1673ffffffffffffffffffffffffffffffffffffffff1673ffffffffffffffffffffffffffffffffffffffff16815260200190815260200160002060000160008282540392505081905550505050505050565b60046020528060005260406000206000915090508060000154908060010160009054906101000a900460ff16905082565b600360009054906101000a900473ffffffffffffffffffffffffffffffffffffffff1673ffffffffffffffffffffffffffffffffffffffff163373ffffffffffffffffffffffffffffffffffffffff1614610841576040517f08c379a00000000000000000000000000000000000000000000000000000000081526004018080602001828103825260138152602001807f43616c6c6572206973206e6f74206f776e65720000000000000000000000000081525060200191505060405180910390fd5b80600360009054906101000a900473ffffffffffffffffffffffffffffffffffffffff1673ffffffffffffffffffffffffffffffffffffffff168173ffffffffffffffffffffffffffffffffffffffff161415610906576040517f08c379a000000000000000000000000000000000000000000000000000000000815260040180806020018281038252600d8152602001807f55736572206973206f776e65720000000000000000000000000000000000000081525060200191505060405180910390fd5b6000600460008473ffffffffffffffffffffffffffffffffffffffff1673ffffffffffffffffffffffffffffffffffffffff16815260200190815260200160002060010160006101000a81548160ff0219169083151502179055507f5c272fb29e21b46870af1850afe89126704c55a7781cc100da3f733e15446c7d82604051808273ffffffffffffffffffffffffffffffffffffffff1673ffffffffffffffffffffffffffffffffffffffff16815260200191505060405180910390a15050565b600360009054906101000a900473ffffffffffffffffffffffffffffffffffffffff1673ffffffffffffffffffffffffffffffffffffffff163373ffffffffffffffffffffffffffffffffffffffff1614610a8b576040517f08c379a00000000000000000000000000000000000000000000000000000000081526004018080602001828103825260138152602001807f43616c6c6572206973206e6f74206f776e65720000000000000000000000000081525060200191505060405180910390fd5b80600360009054906101000a900473ffffffffffffffffffffffffffffffffffffffff1673ffffffffffffffffffffffffffffffffffffffff168173ffffffffffffffffffffffffffffffffffffffff161415610b50576040517f08c379a000000000000000000000000000000000000000000000000000000000815260040180806020018281038252600d8152602001807f55736572206973206f776e65720000000000000000000000000000000000000081525060200191505060405180910390fd5b6001600460008473ffffffffffffffffffffffffffffffffffffffff1673ffffffffffffffffffffffffffffffffffffffff16815260200190815260200160002060010160006101000a81548160ff0219169083151502179055507f75e91ce73c1d3352d8dd3610443539cd33dfe13b1de8f8caae54ec26dd0dc9cb82604051808273ffffffffffffffffffffffffffffffffffffffff1673ffffffffffffffffffffffffffffffffffffffff16815260200191505060405180910390a15050565b600360009054906101000a900473ffffffffffffffffffffffffffffffffffffffff1681565b600360009054906101000a900473ffffffffffffffffffffffffffffffffffffffff1673ffffffffffffffffffffffffffffffffffffffff163373ffffffffffffffffffffffffffffffffffffffff1614610cfb576040517f08c379a00000000000000000000000000000000000000000000000000000000081526004018080602001828103825260138152602001807f43616c6c6572206973206e6f74206f776e65720000000000000000000000000081525060200191505060405180910390fd5b81600360009054906101000a900473ffffffffffffffffffffffffffffffffffffffff1673ffffffffffffffffffffffffffffffffffffffff168173ffffffffffffffffffffffffffffffffffffffff161415610dc0576040517f08c379a000000000000000000000000000000000000000000000000000000000815260040180806020018281038252600d8152602001807f55736572206973206f776e65720000000000000000000000000000000000000081525060200191505060405180910390fd5b81600460008573ffffffffffffffffffffffffffffffffffffffff1673ffffffffffffffffffffffffffffffffffffffff168152602001908152602001600020600001541015610f0b57600460008473ffffffffffffffffffffffffffffffffffffffff1673ffffffffffffffffffffffffffffffffffffffff1681526020019081526020016000206000015460046000600360009054906101000a900473ffffffffffffffffffffffffffffffffffffffff1673ffffffffffffffffffffffffffffffffffffffff1673ffffffffffffffffffffffffffffffffffffffff168152602001908152602001600020600001600082825401925050819055506000600460008573ffffffffffffffffffffffffffffffffffffffff1673ffffffffffffffffffffffffffffffffffffffff16815260200190815260200160002060000181905550610fce565b8160046000600360009054906101000a900473ffffffffffffffffffffffffffffffffffffffff1673ffffffffffffffffffffffffffffffffffffffff1673ffffffffffffffffffffffffffffffffffffffff1681526020019081526020016000206000016000828254019250508190555081600460008573ffffffffffffffffffffffffffffffffffffffff1673ffffffffffffffffffffffffffffffffffffffff168152602001908152602001600020600001600082825403925050819055505b505050565b600360009054906101000a900473ffffffffffffffffffffffffffffffffffffffff1673ffffffffffffffffffffffffffffffffffffffff163373ffffffffffffffffffffffffffffffffffffffff1614611096576040517f08c379a00000000000000000000000000000000000000000000000000000000081526004018080602001828103825260138152602001807f43616c6c6572206973206e6f74206f776e65720000000000000000000000000081525060200191505060405180910390fd5b80600080828254019250508190555080600460003373ffffffffffffffffffffffffffffffffffffffff1673ffffffffffffffffffffffffffffffffffffffff168152602001908152602001600020600001600082825401925050819055507f30385c845b448a36257a6a1716e6ad2e1bc2cbe333cde1e69fe849ad6511adfe3382604051808373ffffffffffffffffffffffffffffffffffffffff1673ffffffffffffffffffffffffffffffffffffffff1681526020018281526020019250505060405180910390a150565b8080600460003373ffffffffffffffffffffffffffffffffffffffff1673ffffffffffffffffffffffffffffffffffffffff1681526020019081526020016000206000015410156111ff576040517f08c379a000000000000000000000000000000000000000000000000000000000815260040180806020018281038252602281526020018061160b6022913960400191505060405180910390fd5b828073ffffffffffffffffffffffffffffffffffffffff163373ffffffffffffffffffffffffffffffffffffffff161415611285576040517f08c379a00000000000000000000000000000000000000000000000000000000081526004018080602001828103825260248152602001806115ba6024913960400191505060405180910390fd5b33600460008273ffffffffffffffffffffffffffffffffffffffff1673ffffffffffffffffffffffffffffffffffffffff16815260200190815260200160002060010160009054906101000a900460ff1615611349576040517f08c379a000000000000000000000000000000000000000000000000000000000815260040180806020018281038252600f8152602001807f5573657220697320626c6f636b6564000000000000000000000000000000000081525060200191505060405180910390fd5b84600460008273ffffffffffffffffffffffffffffffffffffffff1673ffffffffffffffffffffffffffffffffffffffff16815260200190815260200160002060010160009054906101000a900460ff161561140d576040517f08c379a000000000000000000000000000000000000000000000000000000000815260040180806020018281038252600f8152602001807f5573657220697320626c6f636b6564000000000000000000000000000000000081525060200191505060405180910390fd5b600060648611158061146c5750600360009054906101000a900473ffffffffffffffffffffffffffffffffffffffff1673ffffffffffffffffffffffffffffffffffffffff163373ffffffffffffffffffffffffffffffffffffffff16145b1561147a576000905061149c565b600160009054906101000a900460ff1660ff166064878161149757fe5b040290505b85600460003373ffffffffffffffffffffffffffffffffffffffff1673ffffffffffffffffffffffffffffffffffffffff16815260200190815260200160002060000160008282540392505081905550808603600460008973ffffffffffffffffffffffffffffffffffffffff1673ffffffffffffffffffffffffffffffffffffffff168152602001908152602001600020600001600082825401925050819055508060046000600360009054906101000a900473ffffffffffffffffffffffffffffffffffffffff1673ffffffffffffffffffffffffffffffffffffffff1673ffffffffffffffffffffffffffffffffffffffff168152602001908152602001600020600001600082825401925050819055505050505050505056fe43616c6c65722074727920746f2073656e64207275626c657320746f2068696d73656c664f776e657220646f6573206e6f74206861766520656e6f756768207275626c657320666f72206163637275616c43616c6c657220646f6573206e6f74206861766520656e6f756768207275626c6573a265627a7a72315820590542cb7e3385fe1937af8d535d8384d4e3ba66ce71bfa4533918072f6bed9164736f6c63430005100032",
  "source": "// SPDX-License-Identifier: MIT\npragma solidity >=0.4.22 <0.9.0;\n\n// Цифровой рубль Ямайки\ncontract JDR {\n\n  // Число выпущенных рублей\n  uint256 totalSupply;\n  // Процент налога\n  uint8 taxRate;\n  // Процент начисления\n  uint256 accrualRate;\n  // Адресс владельца волюты\n  address public owner;\n\n  // Структура для баланса пользователя\n  // amount - сумма денег\n  // isBlocked - заблокирован ли счет\n  struct Balance {\n    uint256 amount;\n    bool isBlocked;\n  }\n\n  // Отобрадение адрессов и балансов\n  mapping (address => Balance) public balances;\n\n  // Проверяет, является ли отправитель владельцем\n  modifier isOwner() {\n    require(msg.sender == owner, \"Caller is not owner\");\n    _;\n  }\n\n  // Проверяет, не является ли пользователь владельцем\n  modifier isNotOwner(address user) {\n    require(user != owner, \"User is owner\");\n    _;\n  }\n\n  // Проверяет, достаточно ли у отправителя денег в балансе\n  modifier isEnoughRubles(uint256 amount) {\n    require(balances[msg.sender].amount >= amount, \"Caller does not have enough rubles\");\n    _;\n  }\n\n  // Проверяет, одно ли лицо отправитель и получатель\n  modifier isSenderEqualsToReciever(address reciever) {\n    require(msg.sender != reciever, \"Caller try to send rubles to himself\");\n    _;\n  }\n\n  // Проверяет, не заблокирован ли пользователь\n  modifier isNotBlocked(address user) {\n    require(!balances[user].isBlocked, \"User is blocked\");\n    _;\n  }\n\n  // Проверяет, не заблокирован ли пользователь\n  modifier isEnoughReserveForAccrual(address user) {\n    uint256 accrual = balances[user].amount / 100 * accrualRate;\n    require(balances[owner].amount >= accrual, \"Owner does not have enough rubles for accrual\");\n    _;\n  }\n\n  // Событие выпуска цифровых Ямайских рублей\n  event Minted(address who, uint256 amount);\n\n  // Событие блокировки пользователя\n  event Blocked(address who);\n\n  // Событие разблокировки пользователя\n  event Unblocked(address who);\n\n  constructor() public {\n    owner = msg.sender;\n    taxRate = 5;\n    accrualRate = 5;\n  }\n\n  // Функция выпуска цифровых ямайских рублей\n  function mint(uint256 amount) public isOwner {\n    totalSupply += amount;\n    balances[msg.sender].amount += amount;\n    emit Minted(msg.sender, amount);\n  }\n\n  // Функция перевода рублей\n  // Если сумма перевода больше 100, берется 5% налог\n  function transfer(address reciever, uint256 amount) public\n  isEnoughRubles(amount)\n  isSenderEqualsToReciever(reciever)\n  isNotBlocked(msg.sender)\n  isNotBlocked(reciever) {\n    uint256 tax;\n    if(amount <= 100 || msg.sender == owner) {\n      tax = 0;\n    } else {\n      tax = amount / 100 * taxRate;\n    }\n    balances[msg.sender].amount -= amount;\n    balances[reciever].amount += (amount - tax);\n    balances[owner].amount += tax;\n  }\n\n  // Функция блокировки пользователя\n  function blockUser(address user) public\n  isOwner\n  isNotOwner(user) {\n    balances[user].isBlocked = true;\n    emit Blocked(user);\n  }\n\n  // Функция разблокировки пользователя\n  function unblockUser(address user) public\n  isOwner\n  isNotOwner(user) {\n    balances[user].isBlocked = false;\n    emit Unblocked(user);\n  }\n\n  // Функция конфискации денег\n  function confiscation(address user, uint256 amount) public\n  isOwner\n  isNotOwner(user) {\n    if(balances[user].amount < amount) {\n      balances[owner].amount += balances[user].amount;\n      balances[user].amount = 0;\n    } else {\n      balances[owner].amount += amount;\n      balances[user].amount -= amount;\n    }\n  }\n\n  // Функция начисления денег на балансе\n  function accrualPersents(address user) public\n  isOwner\n  isNotOwner(user)\n  isNotBlocked(user)\n  isEnoughReserveForAccrual(user) {\n    uint256 accrual = balances[user].amount / 100 * accrualRate;\n    balances[user].amount += accrual;\n    balances[owner].amount -= accrual;\n  }\n}",
  "sourcePath": "C:\\Users\\Vladislav\\Desktop\\Learning\\Solidity\\jamaica-digital-ruble\\Contracts\\contracts\\JDR.sol",
  "compiler": {
    "name": "solc",
    "version": "0.5.16+commit.9c3226ce.Emscripten.clang"
  },
  "schemaVersion": "3.4.4",
  "updatedAt": "2022-02-08T12:34:28.062Z",
  "networkType": "ethereum",
  "devdoc": {
    "methods": {}
  },
  "userdoc": {
    "methods": {}
  }
}